{
  "_format": "hh-sol-artifact-1",
  "contractName": "S402Facilitator",
  "sourceName": "contracts/S402Facilitator.sol",
  "abi": [
    {
      "inputs": [
        {
          "internalType": "address",
          "name": "_usdc",
          "type": "address"
        }
      ],
      "stateMutability": "nonpayable",
      "type": "constructor"
    },
    {
      "inputs": [],
      "name": "EnforcedPause",
      "type": "error"
    },
    {
      "inputs": [],
      "name": "ExpectedPause",
      "type": "error"
    },
    {
      "inputs": [
        {
          "internalType": "address",
          "name": "owner",
          "type": "address"
        }
      ],
      "name": "OwnableInvalidOwner",
      "type": "error"
    },
    {
      "inputs": [
        {
          "internalType": "address",
          "name": "account",
          "type": "address"
        }
      ],
      "name": "OwnableUnauthorizedAccount",
      "type": "error"
    },
    {
      "inputs": [],
      "name": "ReentrancyGuardReentrantCall",
      "type": "error"
    },
    {
      "anonymous": false,
      "inputs": [
        {
          "indexed": true,
          "internalType": "address",
          "name": "by",
          "type": "address"
        }
      ],
      "name": "EmergencyPause",
      "type": "event"
    },
    {
      "anonymous": false,
      "inputs": [
        {
          "indexed": true,
          "internalType": "address",
          "name": "by",
          "type": "address"
        }
      ],
      "name": "EmergencyUnpause",
      "type": "event"
    },
    {
      "anonymous": false,
      "inputs": [
        {
          "indexed": true,
          "internalType": "address",
          "name": "to",
          "type": "address"
        },
        {
          "indexed": false,
          "internalType": "uint256",
          "name": "amount",
          "type": "uint256"
        }
      ],
      "name": "FeesWithdrawn",
      "type": "event"
    },
    {
      "anonymous": false,
      "inputs": [
        {
          "indexed": true,
          "internalType": "address",
          "name": "previousOwner",
          "type": "address"
        },
        {
          "indexed": true,
          "internalType": "address",
          "name": "newOwner",
          "type": "address"
        }
      ],
      "name": "OwnershipTransferred",
      "type": "event"
    },
    {
      "anonymous": false,
      "inputs": [
        {
          "indexed": false,
          "internalType": "address",
          "name": "account",
          "type": "address"
        }
      ],
      "name": "Paused",
      "type": "event"
    },
    {
      "anonymous": false,
      "inputs": [
        {
          "indexed": true,
          "internalType": "address",
          "name": "from",
          "type": "address"
        },
        {
          "indexed": true,
          "internalType": "address",
          "name": "to",
          "type": "address"
        },
        {
          "indexed": false,
          "internalType": "uint256",
          "name": "value",
          "type": "uint256"
        },
        {
          "indexed": false,
          "internalType": "uint256",
          "name": "platformFee",
          "type": "uint256"
        },
        {
          "indexed": false,
          "internalType": "bytes32",
          "name": "nonce",
          "type": "bytes32"
        }
      ],
      "name": "PaymentSettled",
      "type": "event"
    },
    {
      "anonymous": false,
      "inputs": [
        {
          "indexed": false,
          "internalType": "uint256",
          "name": "oldFee",
          "type": "uint256"
        },
        {
          "indexed": false,
          "internalType": "uint256",
          "name": "newFee",
          "type": "uint256"
        }
      ],
      "name": "PlatformFeeUpdated",
      "type": "event"
    },
    {
      "anonymous": false,
      "inputs": [
        {
          "indexed": false,
          "internalType": "address",
          "name": "account",
          "type": "address"
        }
      ],
      "name": "Unpaused",
      "type": "event"
    },
    {
      "inputs": [],
      "name": "DOMAIN_SEPARATOR",
      "outputs": [
        {
          "internalType": "bytes32",
          "name": "",
          "type": "bytes32"
        }
      ],
      "stateMutability": "view",
      "type": "function"
    },
    {
      "inputs": [],
      "name": "MAX_PLATFORM_FEE_BPS",
      "outputs": [
        {
          "internalType": "uint256",
          "name": "",
          "type": "uint256"
        }
      ],
      "stateMutability": "view",
      "type": "function"
    },
    {
      "inputs": [],
      "name": "PAYMENT_TYPEHASH",
      "outputs": [
        {
          "internalType": "bytes32",
          "name": "",
          "type": "bytes32"
        }
      ],
      "stateMutability": "view",
      "type": "function"
    },
    {
      "inputs": [],
      "name": "accumulatedFees",
      "outputs": [
        {
          "internalType": "uint256",
          "name": "",
          "type": "uint256"
        }
      ],
      "stateMutability": "view",
      "type": "function"
    },
    {
      "inputs": [
        {
          "components": [
            {
              "internalType": "address",
              "name": "owner",
              "type": "address"
            },
            {
              "internalType": "uint256",
              "name": "value",
              "type": "uint256"
            },
            {
              "internalType": "uint256",
              "name": "deadline",
              "type": "uint256"
            },
            {
              "internalType": "address",
              "name": "recipient",
              "type": "address"
            },
            {
              "internalType": "bytes32",
              "name": "nonce",
              "type": "bytes32"
            }
          ],
          "internalType": "struct PaymentData[]",
          "name": "payments",
          "type": "tuple[]"
        },
        {
          "components": [
            {
              "internalType": "uint8",
              "name": "v",
              "type": "uint8"
            },
            {
              "internalType": "bytes32",
              "name": "r",
              "type": "bytes32"
            },
            {
              "internalType": "bytes32",
              "name": "s",
              "type": "bytes32"
            }
          ],
          "internalType": "struct Signature[]",
          "name": "permitSigs",
          "type": "tuple[]"
        },
        {
          "components": [
            {
              "internalType": "uint8",
              "name": "v",
              "type": "uint8"
            },
            {
              "internalType": "bytes32",
              "name": "r",
              "type": "bytes32"
            },
            {
              "internalType": "bytes32",
              "name": "s",
              "type": "bytes32"
            }
          ],
          "internalType": "struct Signature[]",
          "name": "authSigs",
          "type": "tuple[]"
        }
      ],
      "name": "batchSettlePayments",
      "outputs": [
        {
          "internalType": "bool",
          "name": "",
          "type": "bool"
        }
      ],
      "stateMutability": "nonpayable",
      "type": "function"
    },
    {
      "inputs": [
        {
          "internalType": "address",
          "name": "owner",
          "type": "address"
        },
        {
          "internalType": "address",
          "name": "recipient",
          "type": "address"
        },
        {
          "internalType": "uint256",
          "name": "value",
          "type": "uint256"
        },
        {
          "internalType": "uint256",
          "name": "deadline",
          "type": "uint256"
        },
        {
          "internalType": "bytes32",
          "name": "nonce",
          "type": "bytes32"
        }
      ],
      "name": "getPaymentHash",
      "outputs": [
        {
          "internalType": "bytes32",
          "name": "",
          "type": "bytes32"
        }
      ],
      "stateMutability": "pure",
      "type": "function"
    },
    {
      "inputs": [
        {
          "internalType": "address",
          "name": "user",
          "type": "address"
        }
      ],
      "name": "getStats",
      "outputs": [
        {
          "internalType": "uint256",
          "name": "paid",
          "type": "uint256"
        },
        {
          "internalType": "uint256",
          "name": "received",
          "type": "uint256"
        },
        {
          "internalType": "uint256",
          "name": "balance",
          "type": "uint256"
        }
      ],
      "stateMutability": "view",
      "type": "function"
    },
    {
      "inputs": [
        {
          "internalType": "address",
          "name": "owner",
          "type": "address"
        },
        {
          "internalType": "address",
          "name": "recipient",
          "type": "address"
        },
        {
          "internalType": "uint256",
          "name": "value",
          "type": "uint256"
        },
        {
          "internalType": "uint256",
          "name": "deadline",
          "type": "uint256"
        },
        {
          "internalType": "bytes32",
          "name": "nonce",
          "type": "bytes32"
        }
      ],
      "name": "isPaymentUsed",
      "outputs": [
        {
          "internalType": "bool",
          "name": "",
          "type": "bool"
        }
      ],
      "stateMutability": "view",
      "type": "function"
    },
    {
      "inputs": [],
      "name": "owner",
      "outputs": [
        {
          "internalType": "address",
          "name": "",
          "type": "address"
        }
      ],
      "stateMutability": "view",
      "type": "function"
    },
    {
      "inputs": [],
      "name": "pause",
      "outputs": [],
      "stateMutability": "nonpayable",
      "type": "function"
    },
    {
      "inputs": [],
      "name": "paused",
      "outputs": [
        {
          "internalType": "bool",
          "name": "",
          "type": "bool"
        }
      ],
      "stateMutability": "view",
      "type": "function"
    },
    {
      "inputs": [],
      "name": "platformFeeBps",
      "outputs": [
        {
          "internalType": "uint256",
          "name": "",
          "type": "uint256"
        }
      ],
      "stateMutability": "view",
      "type": "function"
    },
    {
      "inputs": [],
      "name": "renounceOwnership",
      "outputs": [],
      "stateMutability": "nonpayable",
      "type": "function"
    },
    {
      "inputs": [
        {
          "components": [
            {
              "internalType": "address",
              "name": "owner",
              "type": "address"
            },
            {
              "internalType": "uint256",
              "name": "value",
              "type": "uint256"
            },
            {
              "internalType": "uint256",
              "name": "deadline",
              "type": "uint256"
            },
            {
              "internalType": "address",
              "name": "recipient",
              "type": "address"
            },
            {
              "internalType": "bytes32",
              "name": "nonce",
              "type": "bytes32"
            }
          ],
          "internalType": "struct PaymentData",
          "name": "payment",
          "type": "tuple"
        },
        {
          "components": [
            {
              "internalType": "uint8",
              "name": "v",
              "type": "uint8"
            },
            {
              "internalType": "bytes32",
              "name": "r",
              "type": "bytes32"
            },
            {
              "internalType": "bytes32",
              "name": "s",
              "type": "bytes32"
            }
          ],
          "internalType": "struct Signature",
          "name": "authSig",
          "type": "tuple"
        }
      ],
      "name": "settlePayment",
      "outputs": [
        {
          "internalType": "bool",
          "name": "",
          "type": "bool"
        }
      ],
      "stateMutability": "nonpayable",
      "type": "function"
    },
    {
      "inputs": [
        {
          "components": [
            {
              "internalType": "address",
              "name": "owner",
              "type": "address"
            },
            {
              "internalType": "uint256",
              "name": "value",
              "type": "uint256"
            },
            {
              "internalType": "uint256",
              "name": "deadline",
              "type": "uint256"
            },
            {
              "internalType": "address",
              "name": "recipient",
              "type": "address"
            },
            {
              "internalType": "bytes32",
              "name": "nonce",
              "type": "bytes32"
            }
          ],
          "internalType": "struct PaymentData",
          "name": "payment",
          "type": "tuple"
        },
        {
          "components": [
            {
              "internalType": "uint8",
              "name": "v",
              "type": "uint8"
            },
            {
              "internalType": "bytes32",
              "name": "r",
              "type": "bytes32"
            },
            {
              "internalType": "bytes32",
              "name": "s",
              "type": "bytes32"
            }
          ],
          "internalType": "struct Signature",
          "name": "permitSig",
          "type": "tuple"
        },
        {
          "components": [
            {
              "internalType": "uint8",
              "name": "v",
              "type": "uint8"
            },
            {
              "internalType": "bytes32",
              "name": "r",
              "type": "bytes32"
            },
            {
              "internalType": "bytes32",
              "name": "s",
              "type": "bytes32"
            }
          ],
          "internalType": "struct Signature",
          "name": "authSig",
          "type": "tuple"
        }
      ],
      "name": "settlePaymentWithPermit",
      "outputs": [
        {
          "internalType": "bool",
          "name": "",
          "type": "bool"
        }
      ],
      "stateMutability": "nonpayable",
      "type": "function"
    },
    {
      "inputs": [
        {
          "internalType": "address",
          "name": "",
          "type": "address"
        }
      ],
      "name": "totalPaid",
      "outputs": [
        {
          "internalType": "uint256",
          "name": "",
          "type": "uint256"
        }
      ],
      "stateMutability": "view",
      "type": "function"
    },
    {
      "inputs": [
        {
          "internalType": "address",
          "name": "",
          "type": "address"
        }
      ],
      "name": "totalReceived",
      "outputs": [
        {
          "internalType": "uint256",
          "name": "",
          "type": "uint256"
        }
      ],
      "stateMutability": "view",
      "type": "function"
    },
    {
      "inputs": [
        {
          "internalType": "address",
          "name": "newOwner",
          "type": "address"
        }
      ],
      "name": "transferOwnership",
      "outputs": [],
      "stateMutability": "nonpayable",
      "type": "function"
    },
    {
      "inputs": [],
      "name": "unpause",
      "outputs": [],
      "stateMutability": "nonpayable",
      "type": "function"
    },
    {
      "inputs": [
        {
          "internalType": "uint256",
          "name": "newFeeBps",
          "type": "uint256"
        }
      ],
      "name": "updatePlatformFee",
      "outputs": [],
      "stateMutability": "nonpayable",
      "type": "function"
    },
    {
      "inputs": [],
      "name": "usdc",
      "outputs": [
        {
          "internalType": "contract IERC20",
          "name": "",
          "type": "address"
        }
      ],
      "stateMutability": "view",
      "type": "function"
    },
    {
      "inputs": [
        {
          "internalType": "bytes32",
          "name": "",
          "type": "bytes32"
        }
      ],
      "name": "usedPayments",
      "outputs": [
        {
          "internalType": "bool",
          "name": "",
          "type": "bool"
        }
      ],
      "stateMutability": "view",
      "type": "function"
    },
    {
      "inputs": [
        {
          "internalType": "address",
          "name": "to",
          "type": "address"
        }
      ],
      "name": "withdrawFees",
      "outputs": [],
      "stateMutability": "nonpayable",
      "type": "function"
    }
  ],
  "bytecode": "0x60c0604052606460025534801561001557600080fd5b506040516132a53803806132a58339818101604052810190610037919061035f565b336001600081905550600073ffffffffffffffffffffffffffffffffffffffff168173ffffffffffffffffffffffffffffffffffffffff16036100b25760006040517f1e4fbdf70000000000000000000000000000000000000000000000000000000081526004016100a9919061039b565b60405180910390fd5b6100c18161023960201b60201c565b50600073ffffffffffffffffffffffffffffffffffffffff168173ffffffffffffffffffffffffffffffffffffffff1603610131576040517f08c379a000000000000000000000000000000000000000000000000000000000815260040161012890610413565b60405180910390fd5b8073ffffffffffffffffffffffffffffffffffffffff1660808173ffffffffffffffffffffffffffffffffffffffff16815250507f8b73c3c69bb8fe3d512ecc4cf759cc79239f7b179b0ffacaa9a75d522b39400f6040518060400160405280600f81526020017f53343032466163696c697461746f720000000000000000000000000000000000815250805190602001206040518060400160405280600181526020017f3100000000000000000000000000000000000000000000000000000000000000815250805190602001204630604051602001610216959493929190610465565b6040516020818303038152906040528051906020012060a08181525050506104b8565b600060018054906101000a900473ffffffffffffffffffffffffffffffffffffffff169050816001806101000a81548173ffffffffffffffffffffffffffffffffffffffff021916908373ffffffffffffffffffffffffffffffffffffffff1602179055508173ffffffffffffffffffffffffffffffffffffffff168173ffffffffffffffffffffffffffffffffffffffff167f8be0079c531659141344cd1fd0a4f28419497f9722a3daafe3b4186f6b6457e060405160405180910390a35050565b600080fd5b600073ffffffffffffffffffffffffffffffffffffffff82169050919050565b600061032c82610301565b9050919050565b61033c81610321565b811461034757600080fd5b50565b60008151905061035981610333565b92915050565b600060208284031215610375576103746102fc565b5b60006103838482850161034a565b91505092915050565b61039581610321565b82525050565b60006020820190506103b0600083018461038c565b92915050565b600082825260208201905092915050565b7f496e76616c696420555344312061646472657373000000000000000000000000600082015250565b60006103fd6014836103b6565b9150610408826103c7565b602082019050919050565b6000602082019050818103600083015261042c816103f0565b9050919050565b6000819050919050565b61044681610433565b82525050565b6000819050919050565b61045f8161044c565b82525050565b600060a08201905061047a600083018861043d565b610487602083018761043d565b610494604083018661043d565b6104a16060830185610456565b6104ae608083018461038c565b9695505050505050565b60805160a051612d9761050e6000396000818161068801526112c901526000818161055301528181610700015281816109a901528181610fc8015281816114f9015281816116050152611b690152612d976000f3fe608060405234801561001057600080fd5b506004361061014d5760003560e01c80635c975abb116100c35780638d01513c1161007c5780638d01513c146103905780638da5cb5b146103ae578063aa0b5988146103cc578063c23f85d6146103e8578063d14f491b1461041a578063f2fde38b1461044a5761014d565b80635c975abb146102e05780636d3298cb146102fe578063715018a61461031c5780637319e615146103265780638456cb591461035657806389986da5146103605761014d565b80633dd6d533116101155780633dd6d5331461020a5780633e413bee1461023a5780633f4ba83a1461025857806345c9d465146102625780634df9cfb314610292578063587f5ed7146102c25761014d565b80630b6a442214610152578063164e68de1461018257806322dcd13e1461019e5780633644e515146101bc57806338676bdc146101da575b600080fd5b61016c60048036038101906101679190611d2b565b610466565b6040516101799190611d73565b60405180910390f35b61019c60048036038101906101979190611dec565b610486565b005b6101a6610680565b6040516101b39190611e32565b60405180910390f35b6101c4610686565b6040516101d19190611e5c565b60405180910390f35b6101f460048036038101906101ef9190611ea3565b6106aa565b6040516102019190611e5c565b60405180910390f35b610224600480360381019061021f9190611dec565b6106e6565b6040516102319190611e32565b60405180910390f35b6102426106fe565b60405161024f9190611f7d565b60405180910390f35b610260610722565b005b61027c60048036038101906102779190611fdb565b610777565b6040516102899190611d73565b60405180910390f35b6102ac60048036038101906102a79190611dec565b610a8f565b6040516102b99190611e32565b60405180910390f35b6102ca610aa7565b6040516102d79190611e32565b60405180910390f35b6102e8610aad565b6040516102f59190611d73565b60405180910390f35b610306610ac4565b6040516103139190611e5c565b60405180910390f35b610324610ae8565b005b610340600480360381019061033b91906120eb565b610afc565b60405161034d9190611d73565b60405180910390f35b61035e610bda565b005b61037a6004803603810190610375919061219f565b610c2f565b6040516103879190611d73565b60405180910390f35b610398610e7b565b6040516103a59190611e32565b60405180910390f35b6103b6610e81565b6040516103c391906121ef565b60405180910390f35b6103e660048036038101906103e1919061220a565b610ea9565b005b61040260048036038101906103fd9190611dec565b610f41565b60405161041193929190612237565b60405180910390f35b610434600480360381019061042f9190611ea3565b61106d565b6040516104419190611d73565b60405180910390f35b610464600480360381019061045f9190611dec565b6110ce565b005b60066020528060005260406000206000915054906101000a900460ff1681565b61048e611154565b600073ffffffffffffffffffffffffffffffffffffffff168173ffffffffffffffffffffffffffffffffffffffff16036104fd576040517f08c379a00000000000000000000000000000000000000000000000000000000081526004016104f4906122cb565b60405180910390fd5b600060035411610542576040517f08c379a000000000000000000000000000000000000000000000000000000000815260040161053990612337565b60405180910390fd5b6000600354905060006003819055507f000000000000000000000000000000000000000000000000000000000000000073ffffffffffffffffffffffffffffffffffffffff1663a9059cbb83836040518363ffffffff1660e01b81526004016105ac929190612357565b6020604051808303816000875af11580156105cb573d6000803e3d6000fd5b505050506040513d601f19601f820116820180604052508101906105ef91906123ac565b61062e576040517f08c379a000000000000000000000000000000000000000000000000000000000815260040161062590612425565b60405180910390fd5b8173ffffffffffffffffffffffffffffffffffffffff167fc0819c13be868895eb93e40eaceb96de976442fa1d404e5c55f14bb65a8c489a826040516106749190611e32565b60405180910390a25050565b60025481565b7f000000000000000000000000000000000000000000000000000000000000000081565b600085858585856040516020016106c59594939291906124cf565b60405160208183030381529060405280519060200120905095945050505050565b60046020528060005260406000206000915090505481565b7f000000000000000000000000000000000000000000000000000000000000000081565b61072a611154565b6107326111db565b3373ffffffffffffffffffffffffffffffffffffffff167f306ca22c455fe433ebbf0542bbf947ea6a725495f9e1043db2a47e3c5794038560405160405180910390a2565b600061078161123e565b610789611284565b600073ffffffffffffffffffffffffffffffffffffffff168460000160208101906107b49190611dec565b73ffffffffffffffffffffffffffffffffffffffff16141580156108175750600073ffffffffffffffffffffffffffffffffffffffff168460600160208101906107fe9190611dec565b73ffffffffffffffffffffffffffffffffffffffff1614155b610856576040517f08c379a000000000000000000000000000000000000000000000000000000000815260040161084d9061257a565b60405180910390fd5b8360400135421115801561086e575060008460200135115b6108ad576040517f08c379a00000000000000000000000000000000000000000000000000000000081526004016108a4906125e6565b60405180910390fd5b60008460000160208101906108c29190611dec565b8560600160208101906108d59190611dec565b8660200135876040013588608001356040516020016108f89594939291906124cf565b6040516020818303038152906040528051906020012090506006600082815260200190815260200160002060009054906101000a900460ff1615610971576040517f08c379a000000000000000000000000000000000000000000000000000000000815260040161096890612652565b60405180910390fd5b60016006600083815260200190815260200160002060006101000a81548160ff0219169083151502179055506109a785846112c5565b7f000000000000000000000000000000000000000000000000000000000000000073ffffffffffffffffffffffffffffffffffffffff1663d505accf8660000160208101906109f69190611dec565b3088602001358960400135896000016020810190610a1491906126ab565b8a602001358b604001356040518863ffffffff1660e01b8152600401610a4097969594939291906126e7565b600060405180830381600087803b158015610a5a57600080fd5b505af1158015610a6e573d6000803e3d6000fd5b50505050610a7b856114c0565b6001915050610a8861187c565b9392505050565b60056020528060005260406000206000915090505481565b60035481565b6000600160009054906101000a900460ff16905090565b7f6cebd4b0d56c50628832f2c62729d4b16a284bc0a49c105c9422b6599df7da4f81565b610af0611154565b610afa6000611886565b565b6000610b06611284565b60008787905090508585905081148015610b2257508383905081145b610b61576040517f08c379a0000000000000000000000000000000000000000000000000000000008152600401610b58906127a2565b60405180910390fd5b60005b81811015610bca57610bbf898983818110610b8257610b816127c2565b5b905060a00201888884818110610b9b57610b9a6127c2565b5b905060600201878785818110610bb457610bb36127c2565b5b905060600201611949565b806001019050610b64565b5060019150509695505050505050565b610be2611154565b610bea611c41565b3373ffffffffffffffffffffffffffffffffffffffff167f7c83004a7e59a8ea03b200186c4dda29a4e144d9844d63dbc1a09acf7dfcd48560405160405180910390a2565b6000610c3961123e565b610c41611284565b600073ffffffffffffffffffffffffffffffffffffffff16836000016020810190610c6c9190611dec565b73ffffffffffffffffffffffffffffffffffffffff1614158015610ccf5750600073ffffffffffffffffffffffffffffffffffffffff16836060016020810190610cb69190611dec565b73ffffffffffffffffffffffffffffffffffffffff1614155b610d0e576040517f08c379a0000000000000000000000000000000000000000000000000000000008152600401610d059061257a565b60405180910390fd5b82604001354211158015610d26575060008360200135115b610d65576040517f08c379a0000000000000000000000000000000000000000000000000000000008152600401610d5c906125e6565b60405180910390fd5b6000836000016020810190610d7a9190611dec565b846060016020810190610d8d9190611dec565b856020013586604001358760800135604051602001610db09594939291906124cf565b6040516020818303038152906040528051906020012090506006600082815260200190815260200160002060009054906101000a900460ff1615610e29576040517f08c379a0000000000000000000000000000000000000000000000000000000008152600401610e2090612652565b60405180910390fd5b60016006600083815260200190815260200160002060006101000a81548160ff021916908315150217905550610e5f84846112c5565b610e68846114c0565b6001915050610e7561187c565b92915050565b6103e881565b600060018054906101000a900473ffffffffffffffffffffffffffffffffffffffff16905090565b610eb1611154565b6103e8811115610ef6576040517f08c379a0000000000000000000000000000000000000000000000000000000008152600401610eed9061283d565b60405180910390fd5b60006002549050816002819055507fd347e206f25a89b917fc9482f1a2d294d749baa4dc9bde7fb495ee11fe4916438183604051610f3592919061285d565b60405180910390a15050565b6000806000600460008573ffffffffffffffffffffffffffffffffffffffff1673ffffffffffffffffffffffffffffffffffffffff16815260200190815260200160002054600560008673ffffffffffffffffffffffffffffffffffffffff1673ffffffffffffffffffffffffffffffffffffffff168152602001908152602001600020547f000000000000000000000000000000000000000000000000000000000000000073ffffffffffffffffffffffffffffffffffffffff166370a08231876040518263ffffffff1660e01b815260040161101f91906121ef565b602060405180830381865afa15801561103c573d6000803e3d6000fd5b505050506040513d601f19601f82011682018060405250810190611060919061289b565b9250925092509193909250565b60008086868686866040516020016110899594939291906124cf565b6040516020818303038152906040528051906020012090506006600082815260200190815260200160002060009054906101000a900460ff1691505095945050505050565b6110d6611154565b600073ffffffffffffffffffffffffffffffffffffffff168173ffffffffffffffffffffffffffffffffffffffff16036111485760006040517f1e4fbdf700000000000000000000000000000000000000000000000000000000815260040161113f91906121ef565b60405180910390fd5b61115181611886565b50565b61115c611ca3565b73ffffffffffffffffffffffffffffffffffffffff1661117a610e81565b73ffffffffffffffffffffffffffffffffffffffff16146111d95761119d611ca3565b6040517f118cdaa70000000000000000000000000000000000000000000000000000000081526004016111d091906121ef565b60405180910390fd5b565b6111e3611cab565b6000600160006101000a81548160ff0219169083151502179055507f5db9ee0a495bf2e6ff9c91a7834c1ba4fdd244a5e8aa4e537bd38aeae4b073aa611227611ca3565b60405161123491906121ef565b60405180910390a1565b60026000540361127a576040517f3ee5aeb500000000000000000000000000000000000000000000000000000000815260040160405180910390fd5b6002600081905550565b61128c610aad565b156112c3576040517fd93c066500000000000000000000000000000000000000000000000000000000815260040160405180910390fd5b565b60007f00000000000000000000000000000000000000000000000000000000000000007f6cebd4b0d56c50628832f2c62729d4b16a284bc0a49c105c9422b6599df7da4f84600001602081019061131c9190611dec565b308660200135876040013588606001602081019061133a9190611dec565b896080013560405160200161135597969594939291906128c8565b6040516020818303038152906040528051906020012060405160200161137c92919061298e565b60405160208183030381529060405280519060200120905060006001828460000160208101906113ac91906126ab565b85602001358660400135604051600081526020016040526040516113d394939291906129c5565b6020604051602081039080840390855afa1580156113f5573d6000803e3d6000fd5b5050506020604051035190508360000160208101906114149190611dec565b73ffffffffffffffffffffffffffffffffffffffff168173ffffffffffffffffffffffffffffffffffffffff1614801561147b5750600073ffffffffffffffffffffffffffffffffffffffff168173ffffffffffffffffffffffffffffffffffffffff1614155b6114ba576040517f08c379a00000000000000000000000000000000000000000000000000000000081526004016114b190612a56565b60405180910390fd5b50505050565b600061271060025483602001356114d79190612aa5565b6114e19190612b16565b905060008183602001356114f59190612b47565b90507f000000000000000000000000000000000000000000000000000000000000000073ffffffffffffffffffffffffffffffffffffffff166323b872dd8460000160208101906115469190611dec565b8560600160208101906115599190611dec565b846040518463ffffffff1660e01b815260040161157893929190612b7b565b6020604051808303816000875af1158015611597573d6000803e3d6000fd5b505050506040513d601f19601f820116820180604052508101906115bb91906123ac565b6115fa576040517f08c379a00000000000000000000000000000000000000000000000000000000081526004016115f190612425565b60405180910390fd5b600082111561170e577f000000000000000000000000000000000000000000000000000000000000000073ffffffffffffffffffffffffffffffffffffffff166323b872dd8460000160208101906116529190611dec565b30856040518463ffffffff1660e01b815260040161167293929190612b7b565b6020604051808303816000875af1158015611691573d6000803e3d6000fd5b505050506040513d601f19601f820116820180604052508101906116b591906123ac565b6116f4576040517f08c379a00000000000000000000000000000000000000000000000000000000081526004016116eb90612bfe565b60405180910390fd5b81600360008282546117069190612c1e565b925050819055505b82602001356004600085600001602081019061172a9190611dec565b73ffffffffffffffffffffffffffffffffffffffff1673ffffffffffffffffffffffffffffffffffffffff16815260200190815260200160002060008282546117739190612c1e565b9250508190555080600560008560600160208101906117929190611dec565b73ffffffffffffffffffffffffffffffffffffffff1673ffffffffffffffffffffffffffffffffffffffff16815260200190815260200160002060008282546117db9190612c1e565b925050819055508260600160208101906117f59190611dec565b73ffffffffffffffffffffffffffffffffffffffff1683600001602081019061181e9190611dec565b73ffffffffffffffffffffffffffffffffffffffff167f7fe6f3a0647e377af326ee091269f54956c4e1b3c8cd74eb797dc29e61705089856020013585876080013560405161186f93929190612c52565b60405180910390a3505050565b6001600081905550565b600060018054906101000a900473ffffffffffffffffffffffffffffffffffffffff169050816001806101000a81548173ffffffffffffffffffffffffffffffffffffffff021916908373ffffffffffffffffffffffffffffffffffffffff1602179055508173ffffffffffffffffffffffffffffffffffffffff168173ffffffffffffffffffffffffffffffffffffffff167f8be0079c531659141344cd1fd0a4f28419497f9722a3daafe3b4186f6b6457e060405160405180910390a35050565b600073ffffffffffffffffffffffffffffffffffffffff168360000160208101906119749190611dec565b73ffffffffffffffffffffffffffffffffffffffff16141580156119d75750600073ffffffffffffffffffffffffffffffffffffffff168360600160208101906119be9190611dec565b73ffffffffffffffffffffffffffffffffffffffff1614155b611a16576040517f08c379a0000000000000000000000000000000000000000000000000000000008152600401611a0d90612cd5565b60405180910390fd5b82604001354211158015611a2e575060008360200135115b611a6d576040517f08c379a0000000000000000000000000000000000000000000000000000000008152600401611a64906125e6565b60405180910390fd5b6000836000016020810190611a829190611dec565b846060016020810190611a959190611dec565b856020013586604001358760800135604051602001611ab89594939291906124cf565b6040516020818303038152906040528051906020012090506006600082815260200190815260200160002060009054906101000a900460ff1615611b31576040517f08c379a0000000000000000000000000000000000000000000000000000000008152600401611b2890612d41565b60405180910390fd5b60016006600083815260200190815260200160002060006101000a81548160ff021916908315150217905550611b6784836112c5565b7f000000000000000000000000000000000000000000000000000000000000000073ffffffffffffffffffffffffffffffffffffffff1663d505accf856000016020810190611bb69190611dec565b3087602001358860400135886000016020810190611bd491906126ab565b89602001358a604001356040518863ffffffff1660e01b8152600401611c0097969594939291906126e7565b600060405180830381600087803b158015611c1a57600080fd5b505af1158015611c2e573d6000803e3d6000fd5b50505050611c3b846114c0565b50505050565b611c49611284565b60018060006101000a81548160ff0219169083151502179055507f62e78cea01bee320cd4e420270b5ea74000d11b0c9f74754ebdbfc544b05a258611c8c611ca3565b604051611c9991906121ef565b60405180910390a1565b600033905090565b611cb3610aad565b611ce9576040517f8dfc202b00000000000000000000000000000000000000000000000000000000815260040160405180910390fd5b565b600080fd5b600080fd5b6000819050919050565b611d0881611cf5565b8114611d1357600080fd5b50565b600081359050611d2581611cff565b92915050565b600060208284031215611d4157611d40611ceb565b5b6000611d4f84828501611d16565b91505092915050565b60008115159050919050565b611d6d81611d58565b82525050565b6000602082019050611d886000830184611d64565b92915050565b600073ffffffffffffffffffffffffffffffffffffffff82169050919050565b6000611db982611d8e565b9050919050565b611dc981611dae565b8114611dd457600080fd5b50565b600081359050611de681611dc0565b92915050565b600060208284031215611e0257611e01611ceb565b5b6000611e1084828501611dd7565b91505092915050565b6000819050919050565b611e2c81611e19565b82525050565b6000602082019050611e476000830184611e23565b92915050565b611e5681611cf5565b82525050565b6000602082019050611e716000830184611e4d565b92915050565b611e8081611e19565b8114611e8b57600080fd5b50565b600081359050611e9d81611e77565b92915050565b600080600080600060a08688031215611ebf57611ebe611ceb565b5b6000611ecd88828901611dd7565b9550506020611ede88828901611dd7565b9450506040611eef88828901611e8e565b9350506060611f0088828901611e8e565b9250506080611f1188828901611d16565b9150509295509295909350565b6000819050919050565b6000611f43611f3e611f3984611d8e565b611f1e565b611d8e565b9050919050565b6000611f5582611f28565b9050919050565b6000611f6782611f4a565b9050919050565b611f7781611f5c565b82525050565b6000602082019050611f926000830184611f6e565b92915050565b600080fd5b600060a08284031215611fb357611fb2611f98565b5b81905092915050565b600060608284031215611fd257611fd1611f98565b5b81905092915050565b60008060006101608486031215611ff557611ff4611ceb565b5b600061200386828701611f9d565b93505060a061201486828701611fbc565b92505061010061202686828701611fbc565b9150509250925092565b600080fd5b600080fd5b600080fd5b60008083601f84011261205557612054612030565b5b8235905067ffffffffffffffff81111561207257612071612035565b5b6020830191508360a082028301111561208e5761208d61203a565b5b9250929050565b60008083601f8401126120ab576120aa612030565b5b8235905067ffffffffffffffff8111156120c8576120c7612035565b5b6020830191508360608202830111156120e4576120e361203a565b5b9250929050565b6000806000806000806060878903121561210857612107611ceb565b5b600087013567ffffffffffffffff81111561212657612125611cf0565b5b61213289828a0161203f565b9650965050602087013567ffffffffffffffff81111561215557612154611cf0565b5b61216189828a01612095565b9450945050604087013567ffffffffffffffff81111561218457612183611cf0565b5b61219089828a01612095565b92509250509295509295509295565b60008061010083850312156121b7576121b6611ceb565b5b60006121c585828601611f9d565b92505060a06121d685828601611fbc565b9150509250929050565b6121e981611dae565b82525050565b600060208201905061220460008301846121e0565b92915050565b6000602082840312156122205761221f611ceb565b5b600061222e84828501611e8e565b91505092915050565b600060608201905061224c6000830186611e23565b6122596020830185611e23565b6122666040830184611e23565b949350505050565b600082825260208201905092915050565b7f496e76616c696420726563697069656e74000000000000000000000000000000600082015250565b60006122b560118361226e565b91506122c08261227f565b602082019050919050565b600060208201905081810360008301526122e4816122a8565b9050919050565b7f4e6f206665657320746f20776974686472617700000000000000000000000000600082015250565b600061232160138361226e565b915061232c826122eb565b602082019050919050565b6000602082019050818103600083015261235081612314565b9050919050565b600060408201905061236c60008301856121e0565b6123796020830184611e23565b9392505050565b61238981611d58565b811461239457600080fd5b50565b6000815190506123a681612380565b92915050565b6000602082840312156123c2576123c1611ceb565b5b60006123d084828501612397565b91505092915050565b7f5472616e73666572206661696c65640000000000000000000000000000000000600082015250565b600061240f600f8361226e565b915061241a826123d9565b602082019050919050565b6000602082019050818103600083015261243e81612402565b9050919050565b60008160601b9050919050565b600061245d82612445565b9050919050565b600061246f82612452565b9050919050565b61248761248282611dae565b612464565b82525050565b6000819050919050565b6124a86124a382611e19565b61248d565b82525050565b6000819050919050565b6124c96124c482611cf5565b6124ae565b82525050565b60006124db8288612476565b6014820191506124eb8287612476565b6014820191506124fb8286612497565b60208201915061250b8285612497565b60208201915061251b82846124b8565b6020820191508190509695505050505050565b7f496e76616c696420616464726573730000000000000000000000000000000000600082015250565b6000612564600f8361226e565b915061256f8261252e565b602082019050919050565b6000602082019050818103600083015261259381612557565b9050919050565b7f496e76616c696420706172616d73000000000000000000000000000000000000600082015250565b60006125d0600e8361226e565b91506125db8261259a565b602082019050919050565b600060208201905081810360008301526125ff816125c3565b9050919050565b7f5061796d656e7420757365640000000000000000000000000000000000000000600082015250565b600061263c600c8361226e565b915061264782612606565b602082019050919050565b6000602082019050818103600083015261266b8161262f565b9050919050565b600060ff82169050919050565b61268881612672565b811461269357600080fd5b50565b6000813590506126a58161267f565b92915050565b6000602082840312156126c1576126c0611ceb565b5b60006126cf84828501612696565b91505092915050565b6126e181612672565b82525050565b600060e0820190506126fc600083018a6121e0565b61270960208301896121e0565b6127166040830188611e23565b6127236060830187611e23565b61273060808301866126d8565b61273d60a0830185611e4d565b61274a60c0830184611e4d565b98975050505050505050565b7f4c656e677468206d69736d617463680000000000000000000000000000000000600082015250565b600061278c600f8361226e565b915061279782612756565b602082019050919050565b600060208201905081810360008301526127bb8161277f565b9050919050565b7f4e487b7100000000000000000000000000000000000000000000000000000000600052603260045260246000fd5b7f46656520746f6f20686967680000000000000000000000000000000000000000600082015250565b6000612827600c8361226e565b9150612832826127f1565b602082019050919050565b600060208201905081810360008301526128568161281a565b9050919050565b60006040820190506128726000830185611e23565b61287f6020830184611e23565b9392505050565b60008151905061289581611e77565b92915050565b6000602082840312156128b1576128b0611ceb565b5b60006128bf84828501612886565b91505092915050565b600060e0820190506128dd600083018a611e4d565b6128ea60208301896121e0565b6128f760408301886121e0565b6129046060830187611e23565b6129116080830186611e23565b61291e60a08301856121e0565b61292b60c0830184611e4d565b98975050505050505050565b600081905092915050565b7f1901000000000000000000000000000000000000000000000000000000000000600082015250565b6000612978600283612937565b915061298382612942565b600282019050919050565b60006129998261296b565b91506129a582856124b8565b6020820191506129b582846124b8565b6020820191508190509392505050565b60006080820190506129da6000830187611e4d565b6129e760208301866126d8565b6129f46040830185611e4d565b612a016060830184611e4d565b95945050505050565b7f4261642073696700000000000000000000000000000000000000000000000000600082015250565b6000612a4060078361226e565b9150612a4b82612a0a565b602082019050919050565b60006020820190508181036000830152612a6f81612a33565b9050919050565b7f4e487b7100000000000000000000000000000000000000000000000000000000600052601160045260246000fd5b6000612ab082611e19565b9150612abb83611e19565b9250828202612ac981611e19565b91508282048414831517612ae057612adf612a76565b5b5092915050565b7f4e487b7100000000000000000000000000000000000000000000000000000000600052601260045260246000fd5b6000612b2182611e19565b9150612b2c83611e19565b925082612b3c57612b3b612ae7565b5b828204905092915050565b6000612b5282611e19565b9150612b5d83611e19565b9250828203905081811115612b7557612b74612a76565b5b92915050565b6000606082019050612b9060008301866121e0565b612b9d60208301856121e0565b612baa6040830184611e23565b949350505050565b7f466565206661696c656400000000000000000000000000000000000000000000600082015250565b6000612be8600a8361226e565b9150612bf382612bb2565b602082019050919050565b60006020820190508181036000830152612c1781612bdb565b9050919050565b6000612c2982611e19565b9150612c3483611e19565b9250828201905080821115612c4c57612c4b612a76565b5b92915050565b6000606082019050612c676000830186611e23565b612c746020830185611e23565b612c816040830184611e4d565b949350505050565b7f496e76616c696420616464720000000000000000000000000000000000000000600082015250565b6000612cbf600c8361226e565b9150612cca82612c89565b602082019050919050565b60006020820190508181036000830152612cee81612cb2565b9050919050565b7f5573656400000000000000000000000000000000000000000000000000000000600082015250565b6000612d2b60048361226e565b9150612d3682612cf5565b602082019050919050565b60006020820190508181036000830152612d5a81612d1e565b905091905056fea2646970667358221220d59820bc2d2ed97a0705a371a1296bdc337529043916f61c6961fe9992e992d864736f6c634300081c0033",
  "linkReferences": {},
  "deployedLinkReferences": {}
}